{
  "address": "0x01C30BfA56e5c7B70CbbE0F85De5894e4b9c1316",
  "abi": [
    {
      "inputs": [],
      "stateMutability": "nonpayable",
      "type": "constructor"
    },
    {
      "anonymous": false,
      "inputs": [
        {
          "indexed": false,
          "internalType": "address",
          "name": "previousAdmin",
          "type": "address"
        },
        {
          "indexed": false,
          "internalType": "address",
          "name": "newAdmin",
          "type": "address"
        }
      ],
      "name": "AdminChanged",
      "type": "event"
    },
    {
      "anonymous": false,
      "inputs": [
        {
          "indexed": true,
          "internalType": "address",
          "name": "beacon",
          "type": "address"
        }
      ],
      "name": "BeaconUpgraded",
      "type": "event"
    },
    {
      "anonymous": false,
      "inputs": [
        {
          "indexed": false,
          "internalType": "uint8",
          "name": "version",
          "type": "uint8"
        }
      ],
      "name": "Initialized",
      "type": "event"
    },
    {
      "anonymous": false,
      "inputs": [
        {
          "indexed": true,
          "internalType": "bytes32",
          "name": "role",
          "type": "bytes32"
        },
        {
          "indexed": true,
          "internalType": "bytes32",
          "name": "previousAdminRole",
          "type": "bytes32"
        },
        {
          "indexed": true,
          "internalType": "bytes32",
          "name": "newAdminRole",
          "type": "bytes32"
        }
      ],
      "name": "RoleAdminChanged",
      "type": "event"
    },
    {
      "anonymous": false,
      "inputs": [
        {
          "indexed": true,
          "internalType": "bytes32",
          "name": "role",
          "type": "bytes32"
        },
        {
          "indexed": true,
          "internalType": "address",
          "name": "account",
          "type": "address"
        },
        {
          "indexed": true,
          "internalType": "address",
          "name": "sender",
          "type": "address"
        }
      ],
      "name": "RoleGranted",
      "type": "event"
    },
    {
      "anonymous": false,
      "inputs": [
        {
          "indexed": true,
          "internalType": "bytes32",
          "name": "role",
          "type": "bytes32"
        },
        {
          "indexed": true,
          "internalType": "address",
          "name": "account",
          "type": "address"
        },
        {
          "indexed": true,
          "internalType": "address",
          "name": "sender",
          "type": "address"
        }
      ],
      "name": "RoleRevoked",
      "type": "event"
    },
    {
      "anonymous": false,
      "inputs": [
        {
          "indexed": true,
          "internalType": "address",
          "name": "implementation",
          "type": "address"
        }
      ],
      "name": "Upgraded",
      "type": "event"
    },
    {
      "inputs": [],
      "name": "DEFAULT_ADMIN_ROLE",
      "outputs": [
        {
          "internalType": "bytes32",
          "name": "",
          "type": "bytes32"
        }
      ],
      "stateMutability": "view",
      "type": "function"
    },
    {
      "inputs": [
        {
          "internalType": "address",
          "name": "",
          "type": "address"
        }
      ],
      "name": "aToken",
      "outputs": [
        {
          "internalType": "address",
          "name": "",
          "type": "address"
        }
      ],
      "stateMutability": "view",
      "type": "function"
    },
    {
      "inputs": [],
      "name": "aavePoolProvider",
      "outputs": [
        {
          "internalType": "contract IPoolAddressesProvider",
          "name": "",
          "type": "address"
        }
      ],
      "stateMutability": "view",
      "type": "function"
    },
    {
      "inputs": [],
      "name": "balances",
      "outputs": [
        {
          "components": [
            {
              "internalType": "uint256",
              "name": "aaveWeth",
              "type": "uint256"
            },
            {
              "internalType": "uint256",
              "name": "aaveUsdc",
              "type": "uint256"
            },
            {
              "internalType": "uint256",
              "name": "compoundUsdc",
              "type": "uint256"
            }
          ],
          "internalType": "struct Agent.Balances",
          "name": "",
          "type": "tuple"
        }
      ],
      "stateMutability": "view",
      "type": "function"
    },
    {
      "inputs": [],
      "name": "compound",
      "outputs": [
        {
          "internalType": "contract ICompound",
          "name": "",
          "type": "address"
        }
      ],
      "stateMutability": "view",
      "type": "function"
    },
    {
      "inputs": [
        {
          "internalType": "uint256",
          "name": "amount1",
          "type": "uint256"
        },
        {
          "internalType": "uint256",
          "name": "amount2",
          "type": "uint256"
        },
        {
          "internalType": "address",
          "name": "token1",
          "type": "address"
        },
        {
          "internalType": "address",
          "name": "token2",
          "type": "address"
        },
        {
          "internalType": "uint24",
          "name": "fee",
          "type": "uint24"
        }
      ],
      "name": "depositUniswap",
      "outputs": [
        {
          "internalType": "uint256",
          "name": "",
          "type": "uint256"
        }
      ],
      "stateMutability": "nonpayable",
      "type": "function"
    },
    {
      "inputs": [
        {
          "internalType": "uint256",
          "name": "tokenId",
          "type": "uint256"
        }
      ],
      "name": "getAmounts",
      "outputs": [
        {
          "internalType": "uint256",
          "name": "availableAmount",
          "type": "uint256"
        },
        {
          "internalType": "uint256",
          "name": "neededAmount",
          "type": "uint256"
        }
      ],
      "stateMutability": "view",
      "type": "function"
    },
    {
      "inputs": [
        {
          "internalType": "uint256",
          "name": "tokenId",
          "type": "uint256"
        }
      ],
      "name": "getAmountsByToken",
      "outputs": [
        {
          "internalType": "uint256",
          "name": "baseBalance",
          "type": "uint256"
        },
        {
          "internalType": "uint256",
          "name": "sideBalance",
          "type": "uint256"
        }
      ],
      "stateMutability": "view",
      "type": "function"
    },
    {
      "inputs": [
        {
          "internalType": "uint256",
          "name": "tokenId",
          "type": "uint256"
        }
      ],
      "name": "getCurrentSqrtRatio",
      "outputs": [
        {
          "internalType": "uint160",
          "name": "sqrtRatioX96",
          "type": "uint160"
        }
      ],
      "stateMutability": "view",
      "type": "function"
    },
    {
      "inputs": [
        {
          "internalType": "uint256",
          "name": "tokenId",
          "type": "uint256"
        }
      ],
      "name": "getLiquidity",
      "outputs": [
        {
          "internalType": "uint128",
          "name": "liquidity",
          "type": "uint128"
        }
      ],
      "stateMutability": "view",
      "type": "function"
    },
    {
      "inputs": [
        {
          "internalType": "uint256",
          "name": "tokenId",
          "type": "uint256"
        }
      ],
      "name": "getPositionTicks",
      "outputs": [
        {
          "internalType": "int24",
          "name": "tickLower",
          "type": "int24"
        },
        {
          "internalType": "int24",
          "name": "tickUpper",
          "type": "int24"
        }
      ],
      "stateMutability": "view",
      "type": "function"
    },
    {
      "inputs": [
        {
          "internalType": "bytes32",
          "name": "role",
          "type": "bytes32"
        }
      ],
      "name": "getRoleAdmin",
      "outputs": [
        {
          "internalType": "bytes32",
          "name": "",
          "type": "bytes32"
        }
      ],
      "stateMutability": "view",
      "type": "function"
    },
    {
      "inputs": [
        {
          "internalType": "bytes32",
          "name": "role",
          "type": "bytes32"
        },
        {
          "internalType": "address",
          "name": "account",
          "type": "address"
        }
      ],
      "name": "grantRole",
      "outputs": [],
      "stateMutability": "nonpayable",
      "type": "function"
    },
    {
      "inputs": [
        {
          "internalType": "bytes32",
          "name": "role",
          "type": "bytes32"
        },
        {
          "internalType": "address",
          "name": "account",
          "type": "address"
        }
      ],
      "name": "hasRole",
      "outputs": [
        {
          "internalType": "bool",
          "name": "",
          "type": "bool"
        }
      ],
      "stateMutability": "view",
      "type": "function"
    },
    {
      "inputs": [],
      "name": "initialize",
      "outputs": [],
      "stateMutability": "nonpayable",
      "type": "function"
    },
    {
      "inputs": [],
      "name": "npmUniswap",
      "outputs": [
        {
          "internalType": "contract INonfungiblePositionManager",
          "name": "",
          "type": "address"
        }
      ],
      "stateMutability": "view",
      "type": "function"
    },
    {
      "inputs": [
        {
          "internalType": "address",
          "name": "",
          "type": "address"
        },
        {
          "internalType": "address",
          "name": "",
          "type": "address"
        },
        {
          "internalType": "uint256",
          "name": "",
          "type": "uint256"
        },
        {
          "internalType": "bytes",
          "name": "",
          "type": "bytes"
        }
      ],
      "name": "onERC721Received",
      "outputs": [
        {
          "internalType": "bytes4",
          "name": "",
          "type": "bytes4"
        }
      ],
      "stateMutability": "nonpayable",
      "type": "function"
    },
    {
      "inputs": [],
      "name": "proxiableUUID",
      "outputs": [
        {
          "internalType": "bytes32",
          "name": "",
          "type": "bytes32"
        }
      ],
      "stateMutability": "view",
      "type": "function"
    },
    {
      "inputs": [
        {
          "internalType": "bytes32",
          "name": "role",
          "type": "bytes32"
        },
        {
          "internalType": "address",
          "name": "account",
          "type": "address"
        }
      ],
      "name": "renounceRole",
      "outputs": [],
      "stateMutability": "nonpayable",
      "type": "function"
    },
    {
      "inputs": [
        {
          "internalType": "bytes32",
          "name": "role",
          "type": "bytes32"
        },
        {
          "internalType": "address",
          "name": "account",
          "type": "address"
        }
      ],
      "name": "revokeRole",
      "outputs": [],
      "stateMutability": "nonpayable",
      "type": "function"
    },
    {
      "inputs": [
        {
          "components": [
            {
              "internalType": "address",
              "name": "aavePoolProvider",
              "type": "address"
            },
            {
              "internalType": "address",
              "name": "compound",
              "type": "address"
            },
            {
              "internalType": "address",
              "name": "npmUniswap",
              "type": "address"
            },
            {
              "internalType": "address",
              "name": "usdcToken",
              "type": "address"
            },
            {
              "internalType": "address",
              "name": "aUsdcToken",
              "type": "address"
            },
            {
              "internalType": "address",
              "name": "wethToken",
              "type": "address"
            },
            {
              "internalType": "address",
              "name": "aWethToken",
              "type": "address"
            }
          ],
          "internalType": "struct Agent.Args",
          "name": "args",
          "type": "tuple"
        }
      ],
      "name": "setArgs",
      "outputs": [],
      "stateMutability": "nonpayable",
      "type": "function"
    },
    {
      "inputs": [
        {
          "internalType": "uint256",
          "name": "amount",
          "type": "uint256"
        },
        {
          "internalType": "address",
          "name": "token",
          "type": "address"
        }
      ],
      "name": "supplyAave",
      "outputs": [],
      "stateMutability": "nonpayable",
      "type": "function"
    },
    {
      "inputs": [
        {
          "internalType": "uint256",
          "name": "amount",
          "type": "uint256"
        },
        {
          "internalType": "address",
          "name": "token",
          "type": "address"
        }
      ],
      "name": "supplyCompound",
      "outputs": [],
      "stateMutability": "nonpayable",
      "type": "function"
    },
    {
      "inputs": [
        {
          "internalType": "bytes4",
          "name": "interfaceId",
          "type": "bytes4"
        }
      ],
      "name": "supportsInterface",
      "outputs": [
        {
          "internalType": "bool",
          "name": "",
          "type": "bool"
        }
      ],
      "stateMutability": "view",
      "type": "function"
    },
    {
      "inputs": [
        {
          "internalType": "uint256",
          "name": "",
          "type": "uint256"
        }
      ],
      "name": "tokenIdToPool",
      "outputs": [
        {
          "internalType": "address",
          "name": "",
          "type": "address"
        }
      ],
      "stateMutability": "view",
      "type": "function"
    },
    {
      "inputs": [
        {
          "internalType": "address",
          "name": "newImplementation",
          "type": "address"
        }
      ],
      "name": "upgradeTo",
      "outputs": [],
      "stateMutability": "nonpayable",
      "type": "function"
    },
    {
      "inputs": [
        {
          "internalType": "address",
          "name": "newImplementation",
          "type": "address"
        },
        {
          "internalType": "bytes",
          "name": "data",
          "type": "bytes"
        }
      ],
      "name": "upgradeToAndCall",
      "outputs": [],
      "stateMutability": "payable",
      "type": "function"
    },
    {
      "inputs": [],
      "name": "usdc",
      "outputs": [
        {
          "internalType": "contract IERC20",
          "name": "",
          "type": "address"
        }
      ],
      "stateMutability": "view",
      "type": "function"
    },
    {
      "inputs": [],
      "name": "weth",
      "outputs": [
        {
          "internalType": "contract IERC20",
          "name": "",
          "type": "address"
        }
      ],
      "stateMutability": "view",
      "type": "function"
    },
    {
      "inputs": [
        {
          "internalType": "uint256",
          "name": "amount",
          "type": "uint256"
        },
        {
          "internalType": "address",
          "name": "token",
          "type": "address"
        }
      ],
      "name": "withdrawAave",
      "outputs": [],
      "stateMutability": "nonpayable",
      "type": "function"
    },
    {
      "inputs": [
        {
          "internalType": "uint256",
          "name": "amount",
          "type": "uint256"
        },
        {
          "internalType": "address",
          "name": "token",
          "type": "address"
        }
      ],
      "name": "withdrawCompound",
      "outputs": [],
      "stateMutability": "nonpayable",
      "type": "function"
    }
  ],
  "numDeployments": 1,
  "solcInputHash": "92253d96e89bd92d38f09928824937f3",
  "bytecode": "0x60a060405230608052348015601357600080fd5b5060805161308061004b600039600081816109c901528181610a4e01528181610cb701528181610d3c0152610e2201526130806000f3fe6080604052600436106101d85760003560e01c806352d1902d11610102578063a217fddf11610095578063d547741f11610064578063d547741f146106e6578063dc422b6914610706578063ef36706c14610726578063f69e20461461074657600080fd5b8063a217fddf14610671578063ba6139ab14610686578063bf6c92d6146106a6578063cd640182146106c657600080fd5b80638129fc1c116100d15780638129fc1c146104ff5780638a3e0c151461051457806391d14854146105ea578063951583c31461063057600080fd5b806352d1902d1461045957806359f7cf501461046e5780637968f1ca1461048e5780637bb98a68146104c857600080fd5b80632f2ff15d1161017a5780633e413bee116101495780633e413bee146103e65780633fc8cef3146104065780634431094a146104265780634f1ef2861461044657600080fd5b80632f2ff15d1461034f5780633615fe4e1461036f57806336568abe146103a65780633659cfe6146103c657600080fd5b8063150b7a02116101b6578063150b7a021461028357806317c1e379146102bc578063248a9ca3146102dc578063275a5fb11461031a57600080fd5b806301ffc9a7146101dd5780630c0c0c63146102125780630f9b76c114610261575b600080fd5b3480156101e957600080fd5b506101fd6101f8366004612798565b610766565b60405190151581526020015b60405180910390f35b34801561021e57600080fd5b5061024961022d3660046127c2565b610101602052600090815260409020546001600160a01b031681565b6040516001600160a01b039091168152602001610209565b34801561026d57600080fd5b5061028161027c3660046127fb565b6107cf565b005b34801561028f57600080fd5b506102a361029e3660046128f9565b610853565b6040516001600160e01b03199091168152602001610209565b3480156102c857600080fd5b5060fb54610249906001600160a01b031681565b3480156102e857600080fd5b5061030c6102f73660046127c2565b60009081526065602052604090206001015490565b604051908152602001610209565b34801561032657600080fd5b5061033a6103353660046127c2565b61087d565b60408051928352602083019190915201610209565b34801561035b57600080fd5b5061028161036a3660046127fb565b610904565b34801561037b57600080fd5b5061024961038a366004612965565b610100602052600090815260409020546001600160a01b031681565b3480156103b257600080fd5b506102816103c13660046127fb565b61092e565b3480156103d257600080fd5b506102816103e1366004612965565b6109bf565b3480156103f257600080fd5b5060fe54610249906001600160a01b031681565b34801561041257600080fd5b5060ff54610249906001600160a01b031681565b34801561043257600080fd5b506102816104413660046127fb565b610b3a565b610281610454366004612982565b610cad565b34801561046557600080fd5b5061030c610e15565b34801561047a57600080fd5b5061033a6104893660046127c2565b610eda565b34801561049a57600080fd5b506104ae6104a93660046127c2565b610ef5565b60408051600293840b81529190920b602082015201610209565b3480156104d457600080fd5b506104dd610f81565b6040805182518152602080840151908201529181015190820152606001610209565b34801561050b57600080fd5b5061028161112f565b34801561052057600080fd5b5061028161052f3660046129d2565b805160fb805473ffffffffffffffffffffffffffffffffffffffff199081166001600160a01b039384161790915560208084015160fc8054841691851691909117905560408085015160fd80548516918616919091179055606085015160fe80548516918616918217905560808601516000918252610100909352818120805485169386169390931790925560a085015160ff80548516918616918217905560c0909501519482529020805490911692909116919091179055565b3480156105f657600080fd5b506101fd6106053660046127fb565b60009182526065602090815260408084206001600160a01b0393909316845291905290205460ff1690565b34801561063c57600080fd5b5061065061064b3660046127c2565b611261565b6040516fffffffffffffffffffffffffffffffff9091168152602001610209565b34801561067d57600080fd5b5061030c600081565b34801561069257600080fd5b5061030c6106a1366004612a7f565b6112eb565b3480156106b257600080fd5b506102496106c13660046127c2565b611645565b3480156106d257600080fd5b506102816106e13660046127fb565b6116e4565b3480156106f257600080fd5b506102816107013660046127fb565b6117ae565b34801561071257600080fd5b506102816107213660046127fb565b6117d3565b34801561073257600080fd5b5060fd54610249906001600160a01b031681565b34801561075257600080fd5b5060fc54610249906001600160a01b031681565b60006001600160e01b031982167f7965db0b0000000000000000000000000000000000000000000000000000000014806107c957507f01ffc9a7000000000000000000000000000000000000000000000000000000006001600160e01b03198316145b92915050565b60fc546040517ff3fef3a30000000000000000000000000000000000000000000000000000000081526001600160a01b038381166004830152602482018590529091169063f3fef3a3906044015b600060405180830381600087803b15801561083757600080fd5b505af115801561084b573d6000803e3d6000fd5b505050505050565b7f150b7a02000000000000000000000000000000000000000000000000000000005b949350505050565b60008082156108ff57600061089184611261565b90506fffffffffffffffffffffffffffffffff8116156108fd5760006108b685611645565b90506000806108c487610ef5565b9150915060006108d383611963565b905060006108e083611963565b90506000806108f18785858b611d45565b9a509850505050505050505b505b915091565b60008281526065602052604090206001015461091f81611de1565b6109298383611deb565b505050565b6001600160a01b03811633146109b15760405162461bcd60e51b815260206004820152602f60248201527f416363657373436f6e74726f6c3a2063616e206f6e6c792072656e6f756e636560448201527f20726f6c657320666f722073656c66000000000000000000000000000000000060648201526084015b60405180910390fd5b6109bb8282611e8d565b5050565b6001600160a01b037f0000000000000000000000000000000000000000000000000000000000000000163003610a4c5760405162461bcd60e51b815260206004820152602c60248201527f46756e6374696f6e206d7573742062652063616c6c6564207468726f7567682060448201526b19195b1959d85d1958d85b1b60a21b60648201526084016109a8565b7f00000000000000000000000000000000000000000000000000000000000000006001600160a01b0316610aa77f360894a13ba1a3210667c828492db98dca3e2076cc3735a920a3ca505d382bbc546001600160a01b031690565b6001600160a01b031614610b125760405162461bcd60e51b815260206004820152602c60248201527f46756e6374696f6e206d7573742062652063616c6c6564207468726f7567682060448201526b6163746976652070726f787960a01b60648201526084016109a8565b610b1b81611f10565b60408051600080825260208201909252610b3791839190611f1b565b50565b60fb546040805163026b1d5f60e01b815290516000926001600160a01b03169163026b1d5f9160048083019260209291908290030181865afa158015610b84573d6000803e3d6000fd5b505050506040513d601f19601f82011682018060405250810190610ba89190612ae9565b60405163095ea7b360e01b81526001600160a01b038083166004830152602482018690529192509083169063095ea7b3906044016020604051808303816000875af1158015610bfb573d6000803e3d6000fd5b505050506040513d601f19601f82011682018060405250810190610c1f9190612b16565b506040517f617ba0370000000000000000000000000000000000000000000000000000000081526001600160a01b038381166004830152602482018590523060448301526000606483015282169063617ba03790608401600060405180830381600087803b158015610c9057600080fd5b505af1158015610ca4573d6000803e3d6000fd5b50505050505050565b6001600160a01b037f0000000000000000000000000000000000000000000000000000000000000000163003610d3a5760405162461bcd60e51b815260206004820152602c60248201527f46756e6374696f6e206d7573742062652063616c6c6564207468726f7567682060448201526b19195b1959d85d1958d85b1b60a21b60648201526084016109a8565b7f00000000000000000000000000000000000000000000000000000000000000006001600160a01b0316610d957f360894a13ba1a3210667c828492db98dca3e2076cc3735a920a3ca505d382bbc546001600160a01b031690565b6001600160a01b031614610e005760405162461bcd60e51b815260206004820152602c60248201527f46756e6374696f6e206d7573742062652063616c6c6564207468726f7567682060448201526b6163746976652070726f787960a01b60648201526084016109a8565b610e0982611f10565b6109bb82826001611f1b565b6000306001600160a01b037f00000000000000000000000000000000000000000000000000000000000000001614610eb55760405162461bcd60e51b815260206004820152603860248201527f555550535570677261646561626c653a206d757374206e6f742062652063616c60448201527f6c6564207468726f7567682064656c656761746563616c6c000000000000000060648201526084016109a8565b507f360894a13ba1a3210667c828492db98dca3e2076cc3735a920a3ca505d382bbc90565b600080600080610ee98561087d565b90969095509350505050565b60008082156108ff5760fd5460405163133f757160e31b8152600481018590526001600160a01b03909116906399fbab889060240161018060405180830381865afa158015610f48573d6000803e3d6000fd5b505050506040513d601f19601f82011682018060405250810190610f6c9190612b6e565b50949b50929950505050505050505050915091565b610fa560405180606001604052806000815260200160008152602001600081525090565b604080516060810180835260ff546001600160a01b03908116600090815261010060205293909320546370a0823160e01b90915230606483015290918291166370a0823160848301602060405180830381865afa15801561100a573d6000803e3d6000fd5b505050506040513d601f19601f8201168201806040525081019061102e9190612c50565b815260fe546001600160a01b03908116600090815261010060209081526040918290205491516370a0823160e01b81523060048201529301929116906370a0823190602401602060405180830381865afa158015611090573d6000803e3d6000fd5b505050506040513d601f19601f820116820180604052508101906110b49190612c50565b815260fc546040516370a0823160e01b81523060048201526020909201916001600160a01b03909116906370a0823190602401602060405180830381865afa158015611104573d6000803e3d6000fd5b505050506040513d601f19601f820116820180604052508101906111289190612c50565b9052919050565b600054610100900460ff161580801561114f5750600054600160ff909116105b806111695750303b158015611169575060005460ff166001145b6111db5760405162461bcd60e51b815260206004820152602e60248201527f496e697469616c697a61626c653a20636f6e747261637420697320616c72656160448201527f647920696e697469616c697a656400000000000000000000000000000000000060648201526084016109a8565b6000805460ff1916600117905580156111fe576000805461ff0019166101001790555b6112066120bb565b61120e6120bb565b611219600033611deb565b8015610b37576000805461ff0019169055604051600181527f7f26b83ff96e1f2b6a682f133852f6798a09c465da95921460cefb38474024989060200160405180910390a150565b600081156112e65760fd5460405163133f757160e31b8152600481018490526001600160a01b03909116906399fbab889060240161018060405180830381865afa1580156112b3573d6000803e3d6000fd5b505050506040513d601f19601f820116820180604052508101906112d79190612b6e565b50929a50505050505050505050505b919050565b60fd5460405163095ea7b360e01b81526001600160a01b0391821660048201526024810187905260009185169063095ea7b3906044016020604051808303816000875af1158015611340573d6000803e3d6000fd5b505050506040513d601f19601f820116820180604052508101906113649190612b16565b5060fd5460405163095ea7b360e01b81526001600160a01b039182166004820152602481018790529084169063095ea7b3906044016020604051808303816000875af11580156113b8573d6000803e3d6000fd5b505050506040513d601f19601f820116820180604052508101906113dc9190612b16565b506000604051806101600160405280866001600160a01b03168152602001856001600160a01b031681526020018462ffffff168152602001620d89e71960020b8152602001620d89e71961142f90612c7f565b60020b81526020018881526020018781526020016000815260200160008152602001306001600160a01b03168152602001428152509050600060fd60009054906101000a90046001600160a01b03166001600160a01b03166388316456836040518263ffffffff1660e01b81526004016114a99190612ca1565b6080604051808303816000875af11580156114c8573d6000803e3d6000fd5b505050506040513d601f19601f820116820180604052508101906114ec9190612d65565b505050905060fd60009054906101000a90046001600160a01b03166001600160a01b031663c45a01556040518163ffffffff1660e01b8152600401602060405180830381865afa158015611544573d6000803e3d6000fd5b505050506040513d601f19601f820116820180604052508101906115689190612ae9565b6040517f1698ee820000000000000000000000000000000000000000000000000000000081526001600160a01b038881166004830152878116602483015262ffffff871660448301529190911690631698ee8290606401602060405180830381865afa1580156115dc573d6000803e3d6000fd5b505050506040513d601f19601f820116820180604052508101906116009190612ae9565b600082815261010160205260409020805473ffffffffffffffffffffffffffffffffffffffff19166001600160a01b0392909216919091179055979650505050505050565b600081815261010160205260408082205481517f3850c7bd00000000000000000000000000000000000000000000000000000000815291516001600160a01b0390911691633850c7bd9160048083019260e09291908290030181865afa1580156116b3573d6000803e3d6000fd5b505050506040513d601f19601f820116820180604052508101906116d79190612db3565b5094979650505050505050565b60fc5460405163095ea7b360e01b81526001600160a01b039182166004820152602481018490529082169063095ea7b3906044016020604051808303816000875af1158015611737573d6000803e3d6000fd5b505050506040513d601f19601f8201168201806040525081019061175b9190612b16565b5060fc546040517ff2b9fdb80000000000000000000000000000000000000000000000000000000081526001600160a01b038381166004830152602482018590529091169063f2b9fdb89060440161081d565b6000828152606560205260409020600101546117c981611de1565b6109298383611e8d565b60fb546040805163026b1d5f60e01b815290516000926001600160a01b03169163026b1d5f9160048083019260209291908290030181865afa15801561181d573d6000803e3d6000fd5b505050506040513d601f19601f820116820180604052508101906118419190612ae9565b6001600160a01b03838116600090815261010060205260409081902054905163095ea7b360e01b8152838316600482015260248101879052929350169063095ea7b3906044016020604051808303816000875af11580156118a6573d6000803e3d6000fd5b505050506040513d601f19601f820116820180604052508101906118ca9190612b16565b506040517f69328dec0000000000000000000000000000000000000000000000000000000081526001600160a01b038381166004830152602482018590523060448301528216906369328dec906064016020604051808303816000875af1158015611939573d6000803e3d6000fd5b505050506040513d601f19601f8201168201806040525081019061195d9190612c50565b50505050565b60008060008360020b1261197a578260020b611987565b8260020b61198790612e43565b90506000816001166000036119ad577001000000000000000000000000000000006119bf565b6ffffcb933bd6fad37aa2d162d1a5940015b70ffffffffffffffffffffffffffffffffff16905060028216156119fe5760806119f9826ffff97272373d413259a46990580e213a612e7b565b901c90505b6004821615611a28576080611a23826ffff2e50f5f656932ef12357cf3c7fdcc612e7b565b901c90505b6008821615611a52576080611a4d826fffe5caca7e10e4e61c3624eaa0941cd0612e7b565b901c90505b6010821615611a7c576080611a77826fffcb9843d60f6159c9db58835c926644612e7b565b901c90505b6020821615611aa6576080611aa1826fff973b41fa98c081472e6896dfb254c0612e7b565b901c90505b6040821615611ad0576080611acb826fff2ea16466c96a3843ec78b326b52861612e7b565b901c90505b6080821615611afa576080611af5826ffe5dee046a99a2a811c461f1969c3053612e7b565b901c90505b610100821615611b25576080611b20826ffcbe86c7900a88aedcffc83b479aa3a4612e7b565b901c90505b610200821615611b50576080611b4b826ff987a7253ac413176f2b074cf7815e54612e7b565b901c90505b610400821615611b7b576080611b76826ff3392b0822b70005940c7a398e4b70f3612e7b565b901c90505b610800821615611ba6576080611ba1826fe7159475a2c29b7443b29c7fa6e889d9612e7b565b901c90505b611000821615611bd1576080611bcc826fd097f3bdfd2022b8845ad8f792aa5825612e7b565b901c90505b612000821615611bfc576080611bf7826fa9f746462d870fdf8a65dc1f90e061e5612e7b565b901c90505b614000821615611c27576080611c22826f70d869a156d2a1b890bb3df62baf32f7612e7b565b901c90505b618000821615611c52576080611c4d826f31be135f97d08fd981231505542fcfa6612e7b565b901c90505b62010000821615611c7e576080611c79826f09aa508b5b7a84e1c677de54f3e99bc9612e7b565b901c90505b62020000821615611ca9576080611ca4826e5d6af8dedb81196699c329225ee604612e7b565b901c90505b62040000821615611cd3576080611cce826d2216e584f5fa1ea926041bedfe98612e7b565b901c90505b62080000821615611cfb576080611cf6826b048a170391f7dc42444e8fa2612e7b565b901c90505b60008460020b1315611d1657611d1381600019612ea8565b90505b611d2564010000000082612ebc565b15611d31576001611d34565b60005b6108759060ff16602083901c612ed0565b600080836001600160a01b0316856001600160a01b03161115611d66579293925b846001600160a01b0316866001600160a01b031611611d9157611d8a85858561213a565b9150611dd8565b836001600160a01b0316866001600160a01b03161015611dca57611db686858561213a565b9150611dc38587856121c0565b9050611dd8565b611dd58585856121c0565b90505b94509492505050565b610b37813361221c565b60008281526065602090815260408083206001600160a01b038516845290915290205460ff166109bb5760008281526065602090815260408083206001600160a01b03851684529091529020805460ff19166001179055611e493390565b6001600160a01b0316816001600160a01b0316837f2f8788117e7eff1d82e926ec794901d17c78024a50270940304540a733656f0d60405160405180910390a45050565b60008281526065602090815260408083206001600160a01b038516845290915290205460ff16156109bb5760008281526065602090815260408083206001600160a01b0385168085529252808320805460ff1916905551339285917ff6391f5c32d9c69d2a47ea670b442974b53935d1edc7fd64eb21e047a839171b9190a45050565b60006109bb81611de1565b7f4910fdfa16fed3260ed0e7147f7cc6da11a60208b5b9406d12a635614ffd91435460ff1615611f4e5761092983612291565b826001600160a01b03166352d1902d6040518163ffffffff1660e01b8152600401602060405180830381865afa925050508015611fa8575060408051601f3d908101601f19168201909252611fa591810190612c50565b60015b61201a5760405162461bcd60e51b815260206004820152602e60248201527f45524331393637557067726164653a206e657720696d706c656d656e7461746960448201527f6f6e206973206e6f74205555505300000000000000000000000000000000000060648201526084016109a8565b7f360894a13ba1a3210667c828492db98dca3e2076cc3735a920a3ca505d382bbc81146120af5760405162461bcd60e51b815260206004820152602960248201527f45524331393637557067726164653a20756e737570706f727465642070726f7860448201527f6961626c6555554944000000000000000000000000000000000000000000000060648201526084016109a8565b5061092983838361235c565b600054610100900460ff166121385760405162461bcd60e51b815260206004820152602b60248201527f496e697469616c697a61626c653a20636f6e7472616374206973206e6f74206960448201527f6e697469616c697a696e6700000000000000000000000000000000000000000060648201526084016109a8565b565b6000826001600160a01b0316846001600160a01b0316111561215a579192915b6001600160a01b0384166121ac7bffffffffffffffffffffffffffffffff000000000000000000000000606085901b166121948787612ee3565b6001600160a01b0316866001600160a01b0316612381565b6121b69190612ea8565b90505b9392505050565b6000826001600160a01b0316846001600160a01b031611156121e0579192915b6121b66fffffffffffffffffffffffffffffffff83166122008686612ee3565b6001600160a01b03166c01000000000000000000000000612381565b60008281526065602090815260408083206001600160a01b038516845290915290205460ff166109bb5761224f8161242f565b61225a836020612441565b60405160200161226b929190612f26565b60408051601f198184030181529082905262461bcd60e51b82526109a891600401612fa7565b6001600160a01b0381163b61230e5760405162461bcd60e51b815260206004820152602d60248201527f455243313936373a206e657720696d706c656d656e746174696f6e206973206e60448201527f6f74206120636f6e74726163740000000000000000000000000000000000000060648201526084016109a8565b7f360894a13ba1a3210667c828492db98dca3e2076cc3735a920a3ca505d382bbc805473ffffffffffffffffffffffffffffffffffffffff19166001600160a01b0392909216919091179055565b61236583612622565b6000825111806123725750805b156109295761195d8383612662565b60008080600019858709858702925082811083820303915050806000036123ba57600084116123af57600080fd5b5082900490506121b9565b8084116123c657600080fd5b60008486880960026001871981018816978890046003810283188082028403028082028403028082028403028082028403028082028403029081029092039091026000889003889004909101858311909403939093029303949094049190911702949350505050565b60606107c96001600160a01b03831660145b60606000612450836002612e7b565b61245b906002612ed0565b67ffffffffffffffff8111156124735761247361282b565b6040519080825280601f01601f19166020018201604052801561249d576020820181803683370190505b5090507f3000000000000000000000000000000000000000000000000000000000000000816000815181106124d4576124d4612fda565b60200101906001600160f81b031916908160001a9053507f78000000000000000000000000000000000000000000000000000000000000008160018151811061251f5761251f612fda565b60200101906001600160f81b031916908160001a9053506000612543846002612e7b565b61254e906001612ed0565b90505b60018111156125d3577f303132333435363738396162636465660000000000000000000000000000000085600f166010811061258f5761258f612fda565b1a60f81b8282815181106125a5576125a5612fda565b60200101906001600160f81b031916908160001a90535060049490941c936125cc81612ff0565b9050612551565b5083156121b95760405162461bcd60e51b815260206004820181905260248201527f537472696e67733a20686578206c656e67746820696e73756666696369656e7460448201526064016109a8565b61262b81612291565b6040516001600160a01b038216907fbc7cd75a20ee27fd9adebab32041f755214dbc6bffa90cc0225b39da2e5c2d3b90600090a250565b60606121b98383604051806060016040528060278152602001613024602791396060600080856001600160a01b03168560405161269f9190613007565b600060405180830381855af49150503d80600081146126da576040519150601f19603f3d011682016040523d82523d6000602084013e6126df565b606091505b50915091506126f0868383876126fa565b9695505050505050565b60608315612769578251600003612762576001600160a01b0385163b6127625760405162461bcd60e51b815260206004820152601d60248201527f416464726573733a2063616c6c20746f206e6f6e2d636f6e747261637400000060448201526064016109a8565b5081610875565b610875838381511561277e5781518083602001fd5b8060405162461bcd60e51b81526004016109a89190612fa7565b6000602082840312156127aa57600080fd5b81356001600160e01b0319811681146121b957600080fd5b6000602082840312156127d457600080fd5b5035919050565b6001600160a01b0381168114610b3757600080fd5b80356112e6816127db565b6000806040838503121561280e57600080fd5b823591506020830135612820816127db565b809150509250929050565b634e487b7160e01b600052604160045260246000fd5b60405160e0810167ffffffffffffffff811182821017156128645761286461282b565b60405290565b600082601f83011261287b57600080fd5b813567ffffffffffffffff8111156128955761289561282b565b604051601f8201601f19908116603f0116810167ffffffffffffffff811182821017156128c4576128c461282b565b6040528181528382016020018510156128dc57600080fd5b816020850160208301376000918101602001919091529392505050565b6000806000806080858703121561290f57600080fd5b843561291a816127db565b9350602085013561292a816127db565b925060408501359150606085013567ffffffffffffffff81111561294d57600080fd5b6129598782880161286a565b91505092959194509250565b60006020828403121561297757600080fd5b81356121b9816127db565b6000806040838503121561299557600080fd5b82356129a0816127db565b9150602083013567ffffffffffffffff8111156129bc57600080fd5b6129c88582860161286a565b9150509250929050565b600060e08284031280156129e557600080fd5b506129ee612841565b82356129f9816127db565b81526020830135612a09816127db565b60208201526040830135612a1c816127db565b60408201526060830135612a2f816127db565b6060820152612a40608084016127f0565b6080820152612a5160a084016127f0565b60a0820152612a6260c084016127f0565b60c08201529392505050565b62ffffff81168114610b3757600080fd5b600080600080600060a08688031215612a9757600080fd5b85359450602086013593506040860135612ab0816127db565b92506060860135612ac0816127db565b91506080860135612ad081612a6e565b809150509295509295909350565b80516112e6816127db565b600060208284031215612afb57600080fd5b81516121b9816127db565b805180151581146112e657600080fd5b600060208284031215612b2857600080fd5b6121b982612b06565b80516112e681612a6e565b8051600281900b81146112e657600080fd5b80516fffffffffffffffffffffffffffffffff811681146112e657600080fd5b6000806000806000806000806000806000806101808d8f031215612b9157600080fd5b8c516bffffffffffffffffffffffff81168114612bad57600080fd5b9b50612bbb60208e01612ade565b9a50612bc960408e01612ade565b9950612bd760608e01612ade565b9850612be560808e01612b31565b9750612bf360a08e01612b3c565b9650612c0160c08e01612b3c565b9550612c0f60e08e01612b4e565b6101008e01516101208f015191965094509250612c2f6101408e01612b4e565b9150612c3e6101608e01612b4e565b90509295989b509295989b509295989b565b600060208284031215612c6257600080fd5b5051919050565b634e487b7160e01b600052601160045260246000fd5b60008160020b627fffff198103612c9857612c98612c69565b60000392915050565b81516001600160a01b0316815261016081016020830151612ccd60208401826001600160a01b03169052565b506040830151612ce4604084018262ffffff169052565b506060830151612cf9606084018260020b9052565b506080830151612d0e608084018260020b9052565b5060a083015160a083015260c083015160c083015260e083015160e0830152610100830151610100830152610120830151612d556101208401826001600160a01b03169052565b5061014092830151919092015290565b60008060008060808587031215612d7b57600080fd5b84519350612d8b60208601612b4e565b6040860151606090960151949790965092505050565b805161ffff811681146112e657600080fd5b600080600080600080600060e0888a031215612dce57600080fd5b8751612dd9816127db565b9650612de760208901612b3c565b9550612df560408901612da1565b9450612e0360608901612da1565b9350612e1160808901612da1565b925060a088015160ff81168114612e2757600080fd5b9150612e3560c08901612b06565b905092959891949750929550565b60007f80000000000000000000000000000000000000000000000000000000000000008203612e7457612e74612c69565b5060000390565b80820281158282048414176107c9576107c9612c69565b634e487b7160e01b600052601260045260246000fd5b600082612eb757612eb7612e92565b500490565b600082612ecb57612ecb612e92565b500690565b808201808211156107c9576107c9612c69565b6001600160a01b0382811682821603908111156107c9576107c9612c69565b60005b83811015612f1d578181015183820152602001612f05565b50506000910152565b7f416363657373436f6e74726f6c3a206163636f756e7420000000000000000000815260008351612f5e816017850160208801612f02565b7f206973206d697373696e6720726f6c65200000000000000000000000000000006017918401918201528351612f9b816028840160208801612f02565b01602801949350505050565b6020815260008251806020840152612fc6816040850160208701612f02565b601f01601f19169190910160400192915050565b634e487b7160e01b600052603260045260246000fd5b600081612fff57612fff612c69565b506000190190565b60008251613019818460208701612f02565b919091019291505056fe416464726573733a206c6f772d6c6576656c2064656c65676174652063616c6c206661696c6564a264697066735822122051e80dff45168cd0a58b9249e1c79c41eb90ffecc265ffadcb9ec12507fb76b464736f6c634300081b0033",
  "implementation": "0x50E621FbA74879B5c9728B6c4C334d0904f44184",
  "devdoc": {
    "events": {
      "AdminChanged(address,address)": {
        "details": "Emitted when the admin account has changed."
      },
      "BeaconUpgraded(address)": {
        "details": "Emitted when the beacon is changed."
      },
      "Initialized(uint8)": {
        "details": "Triggered when the contract has been initialized or reinitialized."
      },
      "RoleAdminChanged(bytes32,bytes32,bytes32)": {
        "details": "Emitted when `newAdminRole` is set as ``role``'s admin role, replacing `previousAdminRole` `DEFAULT_ADMIN_ROLE` is the starting admin for all roles, despite {RoleAdminChanged} not being emitted signaling this. _Available since v3.1._"
      },
      "RoleGranted(bytes32,address,address)": {
        "details": "Emitted when `account` is granted `role`. `sender` is the account that originated the contract call, an admin role bearer except when using {AccessControl-_setupRole}."
      },
      "RoleRevoked(bytes32,address,address)": {
        "details": "Emitted when `account` is revoked `role`. `sender` is the account that originated the contract call:   - if using `revokeRole`, it is the admin role bearer   - if using `renounceRole`, it is the role bearer (i.e. `account`)"
      },
      "Upgraded(address)": {
        "details": "Emitted when the implementation is upgraded."
      }
    },
    "kind": "dev",
    "methods": {
      "constructor": {
        "custom:oz-upgrades-unsafe-allow": "constructor"
      },
      "getRoleAdmin(bytes32)": {
        "details": "Returns the admin role that controls `role`. See {grantRole} and {revokeRole}. To change a role's admin, use {_setRoleAdmin}."
      },
      "grantRole(bytes32,address)": {
        "details": "Grants `role` to `account`. If `account` had not been already granted `role`, emits a {RoleGranted} event. Requirements: - the caller must have ``role``'s admin role. May emit a {RoleGranted} event."
      },
      "hasRole(bytes32,address)": {
        "details": "Returns `true` if `account` has been granted `role`."
      },
      "proxiableUUID()": {
        "details": "Implementation of the ERC1822 {proxiableUUID} function. This returns the storage slot used by the implementation. It is used to validate the implementation's compatibility when performing an upgrade. IMPORTANT: A proxy pointing at a proxiable contract should not be considered proxiable itself, because this risks bricking a proxy that upgrades to it, by delegating to itself until out of gas. Thus it is critical that this function revert if invoked through a proxy. This is guaranteed by the `notDelegated` modifier."
      },
      "renounceRole(bytes32,address)": {
        "details": "Revokes `role` from the calling account. Roles are often managed via {grantRole} and {revokeRole}: this function's purpose is to provide a mechanism for accounts to lose their privileges if they are compromised (such as when a trusted device is misplaced). If the calling account had been revoked `role`, emits a {RoleRevoked} event. Requirements: - the caller must be `account`. May emit a {RoleRevoked} event."
      },
      "revokeRole(bytes32,address)": {
        "details": "Revokes `role` from `account`. If `account` had been granted `role`, emits a {RoleRevoked} event. Requirements: - the caller must have ``role``'s admin role. May emit a {RoleRevoked} event."
      },
      "supportsInterface(bytes4)": {
        "details": "See {IERC165-supportsInterface}."
      },
      "upgradeTo(address)": {
        "custom:oz-upgrades-unsafe-allow-reachable": "delegatecall",
        "details": "Upgrade the implementation of the proxy to `newImplementation`. Calls {_authorizeUpgrade}. Emits an {Upgraded} event."
      },
      "upgradeToAndCall(address,bytes)": {
        "custom:oz-upgrades-unsafe-allow-reachable": "delegatecall",
        "details": "Upgrade the implementation of the proxy to `newImplementation`, and subsequently execute the function call encoded in `data`. Calls {_authorizeUpgrade}. Emits an {Upgraded} event."
      }
    },
    "version": 1
  },
  "userdoc": {
    "kind": "user",
    "methods": {},
    "version": 1
  },
  "storageLayout": {
    "storage": [
      {
        "astId": 782,
        "contract": "contracts/Agent.sol:Agent",
        "label": "_initialized",
        "offset": 0,
        "slot": "0",
        "type": "t_uint8"
      },
      {
        "astId": 785,
        "contract": "contracts/Agent.sol:Agent",
        "label": "_initializing",
        "offset": 1,
        "slot": "0",
        "type": "t_bool"
      },
      {
        "astId": 1461,
        "contract": "contracts/Agent.sol:Agent",
        "label": "__gap",
        "offset": 0,
        "slot": "1",
        "type": "t_array(t_uint256)50_storage"
      },
      {
        "astId": 1845,
        "contract": "contracts/Agent.sol:Agent",
        "label": "__gap",
        "offset": 0,
        "slot": "51",
        "type": "t_array(t_uint256)50_storage"
      },
      {
        "astId": 28,
        "contract": "contracts/Agent.sol:Agent",
        "label": "_roles",
        "offset": 0,
        "slot": "101",
        "type": "t_mapping(t_bytes32,t_struct(RoleData)23_storage)"
      },
      {
        "astId": 335,
        "contract": "contracts/Agent.sol:Agent",
        "label": "__gap",
        "offset": 0,
        "slot": "102",
        "type": "t_array(t_uint256)49_storage"
      },
      {
        "astId": 764,
        "contract": "contracts/Agent.sol:Agent",
        "label": "__gap",
        "offset": 0,
        "slot": "151",
        "type": "t_array(t_uint256)50_storage"
      },
      {
        "astId": 1080,
        "contract": "contracts/Agent.sol:Agent",
        "label": "__gap",
        "offset": 0,
        "slot": "201",
        "type": "t_array(t_uint256)50_storage"
      },
      {
        "astId": 3113,
        "contract": "contracts/Agent.sol:Agent",
        "label": "aavePoolProvider",
        "offset": 0,
        "slot": "251",
        "type": "t_contract(IPoolAddressesProvider)3895"
      },
      {
        "astId": 3116,
        "contract": "contracts/Agent.sol:Agent",
        "label": "compound",
        "offset": 0,
        "slot": "252",
        "type": "t_contract(ICompound)4227"
      },
      {
        "astId": 3119,
        "contract": "contracts/Agent.sol:Agent",
        "label": "npmUniswap",
        "offset": 0,
        "slot": "253",
        "type": "t_contract(INonfungiblePositionManager)4423"
      },
      {
        "astId": 3122,
        "contract": "contracts/Agent.sol:Agent",
        "label": "usdc",
        "offset": 0,
        "slot": "254",
        "type": "t_contract(IERC20)2907"
      },
      {
        "astId": 3125,
        "contract": "contracts/Agent.sol:Agent",
        "label": "weth",
        "offset": 0,
        "slot": "255",
        "type": "t_contract(IERC20)2907"
      },
      {
        "astId": 3129,
        "contract": "contracts/Agent.sol:Agent",
        "label": "aToken",
        "offset": 0,
        "slot": "256",
        "type": "t_mapping(t_address,t_address)"
      },
      {
        "astId": 3133,
        "contract": "contracts/Agent.sol:Agent",
        "label": "tokenIdToPool",
        "offset": 0,
        "slot": "257",
        "type": "t_mapping(t_uint256,t_address)"
      }
    ],
    "types": {
      "t_address": {
        "encoding": "inplace",
        "label": "address",
        "numberOfBytes": "20"
      },
      "t_array(t_uint256)49_storage": {
        "base": "t_uint256",
        "encoding": "inplace",
        "label": "uint256[49]",
        "numberOfBytes": "1568"
      },
      "t_array(t_uint256)50_storage": {
        "base": "t_uint256",
        "encoding": "inplace",
        "label": "uint256[50]",
        "numberOfBytes": "1600"
      },
      "t_bool": {
        "encoding": "inplace",
        "label": "bool",
        "numberOfBytes": "1"
      },
      "t_bytes32": {
        "encoding": "inplace",
        "label": "bytes32",
        "numberOfBytes": "32"
      },
      "t_contract(ICompound)4227": {
        "encoding": "inplace",
        "label": "contract ICompound",
        "numberOfBytes": "20"
      },
      "t_contract(IERC20)2907": {
        "encoding": "inplace",
        "label": "contract IERC20",
        "numberOfBytes": "20"
      },
      "t_contract(INonfungiblePositionManager)4423": {
        "encoding": "inplace",
        "label": "contract INonfungiblePositionManager",
        "numberOfBytes": "20"
      },
      "t_contract(IPoolAddressesProvider)3895": {
        "encoding": "inplace",
        "label": "contract IPoolAddressesProvider",
        "numberOfBytes": "20"
      },
      "t_mapping(t_address,t_address)": {
        "encoding": "mapping",
        "key": "t_address",
        "label": "mapping(address => address)",
        "numberOfBytes": "32",
        "value": "t_address"
      },
      "t_mapping(t_address,t_bool)": {
        "encoding": "mapping",
        "key": "t_address",
        "label": "mapping(address => bool)",
        "numberOfBytes": "32",
        "value": "t_bool"
      },
      "t_mapping(t_bytes32,t_struct(RoleData)23_storage)": {
        "encoding": "mapping",
        "key": "t_bytes32",
        "label": "mapping(bytes32 => struct AccessControlUpgradeable.RoleData)",
        "numberOfBytes": "32",
        "value": "t_struct(RoleData)23_storage"
      },
      "t_mapping(t_uint256,t_address)": {
        "encoding": "mapping",
        "key": "t_uint256",
        "label": "mapping(uint256 => address)",
        "numberOfBytes": "32",
        "value": "t_address"
      },
      "t_struct(RoleData)23_storage": {
        "encoding": "inplace",
        "label": "struct AccessControlUpgradeable.RoleData",
        "members": [
          {
            "astId": 20,
            "contract": "contracts/Agent.sol:Agent",
            "label": "members",
            "offset": 0,
            "slot": "0",
            "type": "t_mapping(t_address,t_bool)"
          },
          {
            "astId": 22,
            "contract": "contracts/Agent.sol:Agent",
            "label": "adminRole",
            "offset": 0,
            "slot": "1",
            "type": "t_bytes32"
          }
        ],
        "numberOfBytes": "64"
      },
      "t_uint256": {
        "encoding": "inplace",
        "label": "uint256",
        "numberOfBytes": "32"
      },
      "t_uint8": {
        "encoding": "inplace",
        "label": "uint8",
        "numberOfBytes": "1"
      }
    }
  }
}